:03000000020E3CB1
:0C0E3C00787FE4F6D8FD75812A020E8351
:100F1E00E50DC4540FF516E50D540FF517E50CC489
:100F2E00540FF518E50C540FF519E50BC4540FF5D5
:100F3E001AE50B540FF51BE50AC4540FF51CE50A10
:100F4E00540FF51DE509C4540FF51EE509540FF5B0
:100F5E001FE508C4540FF520E508540FF521E50EE2
:050F6E00540FF52222E2
:10080600120DAD1210B27523027B01E4FDAF231267
:100816000F73E4F52475F020E523A424D6F582E5CC
:10082600F034FFF583E5822524F582E43583F583EC
:10083600E493FF1200030524E524C3942040D60563
:1008460023E523C3940640C1E4F523E52325E024EC
:1008560002FF7B017D01120F73E4F52475F020E59C
:1008660023A42496F582E5F03400F583E582252459
:10087600F582E43583F583E493FF1200030524E54E
:1008860024C3942040D60523E523C3940340BCE447
:10089600F523E5232402FF7B017D02120F73E4F5A5
:1008A6002475F020E523A424F6F582E5F03400F55E
:1008B60083E5822524F582E43583F583E493FF12EC
:1008C60000030524E524C3942040D60523E523C36D
:1008D600940240BEE4F523E52375F003A42406FF45
:1008E600E4FB7D03120F73E4F524E5249003A6933D
:1008F600FF1200030524E524C3941040ED0523E50B
:1009060023C3940240D1E4F523E4FB7D01AF231217
:100916000F73E4F524E52375F002A4FFC374119F59
:10092600FFE495F0FEEFC4F8540FC868FFEEC45418
:10093600F048FE74162FF58274023EF583E5822593
:1009460024F582E43583F583E493FF12000305243E
:10095600E524C3941040BE0523E523C3940240A9B1
:10096600E528700312110A120F1E121171E528B440
:1009760001031210D5E528B40103120ADDE528B4F7
:100986000103120BC3E50DC4540F75F00AA424D05D
:10099600FFE5F03407FEE50D540F7C002FFFEC3E1B
:1009A600FEC006C007E50CC4540F75F00AA4FFE5A7
:1009B6000C540F2FFDEC35F0FCE50BC4540F75F00D
:1009C6000AA4FFE50B540F7A002FFBEA35F0FAD0A4
:1009D60007D006120C71EF04F50EE4F525E4F523B5
:1009E600E5232402FFE52525E025E02FFFE4FB7D36
:1009F60001120F73E4F524E52525E025232416F8D6
:100A0600E675F010A42406F582740335F0F583E547
:100A1600822524F582E43583F583E493FF120003EF
:100A26000524E524C3941040CE0523E523C3940290
:100A360040AE0525E525C3940340A27B017D027FD8
:100A460004120F73E4F524E52275F020A42416F5AC
:100A560082740135F0F583E5822524F582E4358339
:100A6600F583E493FF1200030524E524C394204094
:100A7600D6E4F525E525C394034003020966E4F5AB
:100A860023E5232404FFE52575F003A42FFFE4FBEB
:100A96007D03120F73E4F524E52525E02523241CA8
:100AA600F8E675F010A42406F582740335F0F58394
:100AB600E5822524F582E43583F583E493FF12006D
:100AC600030524E524C3941040CE0523E523C394EF
:070AD6000240AE0525809DE2
:05114400121149D2A1C7
:081149007F017E02DEFEDFFAE9
:01115100227B
:07116A00AE071FEE70FA2230
:0F113500D2A0121144C2A0121149C2A102114945
:0A116000C2A0121144D2A0021149EE
:07100700AC071211357F78E0
:02100E00AD072C
:10101000E4FBFAEDC4131313540124FF92A0ED2551
:10102000E0FD121144C2A11211490BBB08E5D2A088
:10103000121149D2A130A00F0AEAD394C840F6C2D7
:0E104000A11211497F0022C2A11211497F01A5
:01104E00227F
:05112000121125E4FF9F
:10112500121007E4FF12100EAF0412100E02116028
:100003001210077F4012100EAF0412100E0211607F
:101084007F201211257F02121125E4F9E924B0FF13
:101094001211207F10121125E4F526E4FF1200033B
:0D10A4000526E526C3948040F209B908DF57
:0110B100221C
:100DAD007FF412116A7FAE1211207F101211257F70
:100DBD00401211257F811211257FFF1211257FA170
:100DCD001211257FC81211257FA61211257FA81299
:100DDD0011257F3F1211257FD31211207FD51211BE
:100DED00257F801211257FD91211257FF112112532
:100DFD007FDA1211257F121211257FDB1211257F4B
:100E0D00401211257F201211257F021211257F8D91
:100E1D001211257F141211257FA41211257FA61200
:0F0E2D0011257FAF1211257F6412116A02108404
:100F73008F268D27A9037F201211207F221211258E
:100F8300E52725E0FF121125E52725E004FF1211CF
:100F9300257F21121125E975F008A424088526F080
:100FA300A4FF121125E975F008A4FF24088526F093
:0A0FB300A4FEEF24072EFF02112513
:100016000804C312268AA2AAA4A32226EA02020080
:100026000000FF00003F2424243F0080FF00000062
:10003600000000007FC949494949497F0000000086
:100046000008044223128E42320E4282423E0000D3
:1000560000FC848484FC001010101010FF101000A7
:10006600003F1010103F0000010640807F00000096
:1000760020102CE7242400F01010FF1010F00000D0
:100086000101017F211100070202FF0202070000A1
:10009600002018C744444444FC444444440400003B
:1000A6000404040704040404FF0404040404040010
:1000B600000000FE2222222222222222FE0000002E
:1000C6008040300F02020202020242827F000000DC
:1000D600000000FE82828282828282FE0000000090
:1000E600000000FF40404040404040FF000000004C
:1000F600000000BE2A2A2AEA2A2A2A3E0000000018
:10010600004442494949497F49494949414000001B
:100116000004FF242424FF0400FE222222FE000005
:1001260088482F090919AF48300F0242827F000024
:100136008080808080808080808080808080800039
:1001460000000000000000000000000000000000A9
:100156000000080808080808080808080800000041
:100166001010101010101010101010101010100099
:1001760000048484848484848484848484040000C5
:100186002020202020202020202020202020200089
:1001960000FC040404FC040404FC040404FC000045
:1001A600007F28242320202020212222227F0000D5
:1001B6000002424242C27E42424242C20202000063
:1001C60040404040784740404040407F40404000EB
:1001D60020202020202021222C202020202020002A
:1001E600004020100C03000000010204186000000B
:1001F600000000FE82828282828282FE000000006F
:10020600000000FF40404040404040FF000000002A
:10021600000000F8000000000000003300000000AD
:1002260000100C02100C020000000000000000008C
:100236000040C07840C0780000043F04043F04003A
:1002460000708888FC08300000182020FF211E005E
:10025600F008F0806018000000310C031E211E001B
:1002660000F00888700000001E21232C1927211099
:1002760000120E0000000000000000000000000058
:10028600000000E0180402000000000718204000EB
:1002960000020418E00000000040201807000000DB
:1002A600404080F0804040000202010F010202003F
:1002B60000000000E0000000000101010F01010143
:1002C6000000000000000000009070000000000028
:1002D6000080808080808080000000000000000098
:1002E60000000000000000000030300000000000A8
:1002F60000000000C038040000601807000000007D
:1003060000E010080810E000000F102020100F0079
:1003160000001010F8000000000020203F20200000
:10032600007008080808F000003028242221300058
:1003360000300808088870000018202121221C00BF
:100346000000804030F8000000060524243F2424E5
:1003560000F88888880808000019202020110E005F
:1003660000E0108888900000000F112020201F0058
:1003760000180808886818000000003E0100000008
:100386000070880808887000001C222121221C00A9
:1003960000F008080810E0000001122222110F00E8
:1003A60000000000000000000000363600000000DB
:1003B600000000000000000000005B3B00000000A1
:1003C60000008040201008000001020408102000F0
:1003D600004040404040400000020202020202008B
:1003E60000081020408000000020100804020100D0
:1003F60000704808088870000000003037000000D0
:10040600C030C828E810E000071827282F28170052
:100416000000C038E0000000203C230202273820FC
:1004260008F8888888700000203F202020110E00E0
:10043600C0300808080838000718202020100800D7
:1004460008F808080810E000203F202020100F00C0
:1004560008F88888E8081000203F2020232018008C
:1004660008F88888E8081000203F200003000000F4
:10047600C03008080838000007182020221E020095
:1004860008F808000008F808203F210101213F2054
:10049600000808F8080800000020203F202000007F
:1004A60000000808F8080800C08080807F0000006F
:1004B60008F888C028180800203F200126382000A8
:1004C60008F8080000000000203F2020202030000F
:1004D60008F8F800F8F80800203F013E013F200028
:1004E60008F830C00008F808203F200007183F0031
:1004F600E01008080810E0000F10202020100F0060
:1005060008F808080808F000203F21010101000052
:10051600E01008080810E0000F10282830504F009F
:1005260008F8888888887000203F2000030C302057
:1005360000708808080838000038202121221C0095
:10054600180808F8080818000000203F20000000DE
:1005560008F808000008F808001F202020201F00C7
:100566000878880000C83808000007380E01000027
:1005760008F800F800F8080000033E013E030000FA
:10058600081868808068180820302C03032C302057
:100596000838C800C83808000000203F20000000C6
:1005A60010080808C838080020382621202018001E
:1005B600000000FE020202000000007F40404000F2
:1005C60000000004081020C0000000000202027FA4
:1005D60000020202FE000000004040407F000000D2
:1005E60000000402020400000000000000000000F9
:1005F60000000000000000008080808080808080F5
:1006060000020204000000000000000000000000DC
:10061600000080808000000000192424123F200082
:1006260010F0008080000000003F112020110E0015
:100636000000008080800000000E112020201100A4
:10064600000080808090F000001F202020103F20B6
:100656000000808080800000001F242424241700CE
:10066600008080E0909020000020203F20200000A5
:100676000000808080808000006B949494936000DA
:1006860010F0008080800000203F210000203F20E5
:1006960000809898000000000020203F20200000E5
:1006A600000000809898000000C08080807F0000D5
:1006B60010F0000080808000203F240629302000B2
:1006C600001010F8000000000020203F202000004D
:1006D6008080808080808000203F20003F20003F77
:1006E6008080008080800000203F210000203F2085
:1006F6000000808080800000001F202020201F0036
:10070600808000808000000080FF912020110E0074
:100716000000008080008000000E11202091FF80E4
:10072600808080008080800020203F212000010002
:100736000000808080808000003324242424190057
:10074600008080E0808000000000001F2020100054
:100756008080000000808000001F202020103F20A5
:10076600808080008080800000030C300C03000035
:100776008080008080008080010E300C07380601E2
:1007860000808080008080000020310E2E31200005
:1007960080808000008080800081867818060100B5
:1007A60000808080808080000021302C2221300053
:1007B6000000000000FC020200000000013E404074
:1007C60000000000FF00000000000000FF00000025
:1007D6000202FC000000000040403E010000000054
:1007E6008080808080E0C080010101010107030153
:1007F60080C0E08080808080010307010101010143
:0E11520081838587898D8B80828486888C8A34
:1010F100070800592321052004070F000000000004
:021101000000EC
:10104F00C2B500C2B600D2B500E4FEEF1392B4EF02
:10105F00C313FFD2B600C2B6000EBE08EEE4FEED1B
:10106F001392B4EDC313FDD2B600C2B6000EBE0884
:04107F00EEC2B50008
:01108300224A
:100FBD00C2B500C2B600D2B500E4FDEF1392B4EF96
:100FCD00C313FFD2B600C2B6000DBD08EE00E4FD9E
:100FDD00A2B4E433FFC43333335480FCEEC3134C5B
:100FED00FED2B600C2B6000DBD08E5C2B500D2B640
:090FFD0000C2B400D2B400AF063A
:0110060022C7
:1010B200E4FD7F8E12104FE4FCEC90115993FF7403
:1010C200082CF8E6FD12104F0CBC07ED7D807F8ED8
:0310D20002104FBA
:10110A00E4FBEB90115293FF120FBD74082BF8A663
:05111A00070BBB07ED0F
:01111F0022AD
:0611030001290001280093
:080C71008E268F278D828C83F3
:100C7900E582640145836008E58264024583701357
:100C8900740C2582F582E43583F583E527152770F1
:100C9900021526E5822401FFE43583FE7C007D03ED
:100CA900120D107D05120D22AC06AD07E58225E077
:100CB900FFE58333FEEF2BFFEE3ACF2DCF3CFEE568
:100CC900272FFBE5263EFAAE26AF277C007D0412CE
:100CD9000D22EF2BFBEE3AFAAE26AF277C007D649E
:100CE900120D22C3EB9FFBEA9EFAAE26AF277C01C9
:100CF9007D90120D22EF2BFFEE3AFE7C007D07124C
:060D09000D22AE04AF054F
:010D0F0022C1
:07117100D2AFD2AAD28A22FC
:03001300020EC812
:100EC800C0E0C0F0C083C082C0D075D000C000C0F0
:100ED80001C002C003C004C005C006C0077FE812F5
:100EE800116A20B316752900E52870047F01800275
:100EF8007F008F28E52870031210B2D007D006D0E3
:100F080005D004D003D002D001D000D0D0D082D0F8
:060F180083D0F0D0E032AE
:1010D500D2B220B2167FE812116A20B20B0529E5BB
:0C10E5002975F0068485F02930B2FD2248
:100BC300D2B130B103020C707FF412116A30B10359
:100BD300020C6D74082529F80674082529F8E654D3
:100BE3000FD394094004740626F6E508D3945940BC
:100BF30003E4F508E509D394594003E4F509E50A4C
:100C0300D394234003E4F50AE50C30E00AE50BD363
:100C130094314003750B01E50C20E010E50D6402EF
:100C2300600AE50BD394304003750B01E50D5403C3
:100C3300700FE50DB4020AE50BD394294003750B3D
:100C430001E50D5403600FE50DB4020AE50BD394DF
:100C5300284003750B01E50CD394124003750C0176
:0E0C6300E50DD394994003E4F50D30B2FD2267
:100ADD00D2B030B003020BC27FE812116A30B003FE
:100AED00020BBFE5086019E5096015E50A6011E51F
:100AFD000B6401600BE50C64016005E50DB40103A9
:100B0D00752A01E5087008E52AB40103750860E54A
:100B1D00097008E52AB40103750960E50A7008E556
:100B2D002AB40103750A24E50C30E00DE50BB40180
:100B3D0008E52AB40103750B32E50C20E014E50D30
:100B4D006402600EE50B64016005E52AB4010375CE
:100B5D000B31E50D54037012E50DB4020DE50BB428
:100B6D000108E52AB40103750B30E50D540360123D
:100B7D00E50DB4020DE50BB40108E52AB4010375CA
:100B8D000B29E50CB40108E52AB40103750C13E536
:100B9D000D7008E52AB40103750DA074082529F818
:100BAD001674082529F8E6540FD39409400474FAF5
:060BBD0026F630B0FD2217
:100E4800020806E493A3F8E493A34003F68001F2B2
:100E580008DFF48029E493A3F85407240CC8C333AB
:100E6800C4540F4420C8834004F456800146F6DF7A
:100E7800E4800B01020408102040809010F1E47E09
:100E8800019360BCA3FF543F30E509541FFEE4936F
:100E9800A360010ECF54C025E060A840B8E493A336
:100EA800FAE493A3F8E493A3C8C582C8CAC583CA61
:100EB800F0A3C8C582C8CAC583CADFE9DEE780BE19
:0111090000E5
:100D1000EF8DF0A4A8F0CF8CF0A428CE8DF0A42EF7
:020D2000FE22B1
:100D2200C2D5EC30E709B2D5E4C39DFDE49CFCEEEC
:100D320030E715B2D5E4C39FFFE49EFE120D58C3FF
:100D4200E49DFDE49CFC8003120D5830D507C3E4FA
:060D52009FFFE49EFE225B
:100D5800BC000BBE0029EF8DF084FFADF022E4CC7F
:100D6800F875F008EF2FFFEE33FEEC33FCEE9DEC48
:100D7800984005FCEE9DFE0FD5F0E9E4CEFD22ED8E
:100D8800F8F5F0EE8420D21CFEADF075F008EF2FD8
:100D9800FFED33FD4007985006D5F0F222C398FDC9
:050DA8000FD5F0EA2266
:00000001FF
