:03000000020AE809
:0C0AE800787FE4F6D8FD758127020B2F03
:100B7400E50EC4540FF516E50E540FF517E50CC435
:100B8400540FF518E50C540FF519E50BC4540FF583
:100B94001AE50B540FF51BE50AC4540FF51CE50ABE
:100BA400540FF51DE509C4540FF51EE509540FF55E
:100BB4001FE508C4540FF520E508540FF521E50D91
:050BC400540FF5222290
:1007F300120A59120D087523027B01E4FDAF23127F
:100803000BC9E4F52475F020E523A424C3F582E5A0
:10081300F034FFF583E5822524F582E43583F583FF
:10082300E493FF120D850524E524C3942040D605E7
:1008330023E523C3940640C1E4F523E52325E024FF
:1008430002FF7B017D01120BC9E4F52475F020E55D
:1008530023A42483F582E5F03400F583E58225247F
:10086300F582E43583F583E493FF120D850524E5D2
:1008730024C3942040D60523E523C3940340BCE45A
:10088300F523E5232402FF7B017D02120BC9E4F566
:100893002475F020E523A424E3F582E5F03400F584
:1008A30083E5822524F582E43583F583E493FF12FF
:1008B3000D850524E524C3942040D60523E523C3F1
:1008C300940240BEE4F523E52375F003A42406FF58
:1008D300E4FB7D03120BC9E4F524E5249003939311
:1008E300FF120D850524E524C3941040ED0523E58F
:1008F30023C3940240D1E4F523E4FB7D01AF23122B
:100903000BC9E4F524E52375F002A4FFC374119F1A
:10091300FFE495F0FEEFC4F8540FC868FFEEC4542B
:10092300F048FE74032FF58274023EF583E58225B9
:1009330024F582E43583F583E493FF120D850524C2
:10094300E524C3941040BE0523E523C3940240A9C4
:10095300120D47120D2B120B74E4F525E4F523E574
:10096300232402FFE52525E025E02FFFE4FB7D019D
:10097300120BC9E4F524E52525E025232416F8E622
:1009830075F010A424F3F582740235F0F583E58243
:100993002524F582E43583F583E493FF120D850561
:1009A30024E524C3941040CE0523E523C3940240D9
:1009B300AE0525E525C3940340A27B017D027F0498
:1009C300120BC9E4F524E52275F020A42403F58273
:1009D300740135F0F583E5822524F582E43583F54A
:1009E30083E493FF120D850524E524C3942040D6A8
:1009F300E4F525E525C394034003020953E4F523F5
:100A0300E5232404FFE52575F003A42FFFE4FB7D14
:100A130003120BC9E4F524E52525E02523241CF85E
:100A2300E675F010A424F3F582740235F0F583E53E
:100A3300822524F582E43583F583E493FF120D8543
:100A43000524E524C3941040CE0523E523C3940273
:060A530040AE0525809D68
:050DA400120DA9D2A10F
:080DA9007F017E02DEFEDFFA8D
:010DB100221F
:070DCA00AE071FEE70FA22D4
:0F0D9500D2A0120DA4C2A0120DA9C2A1020DA9D5
:0A0DC000C2A0120DA4D2A0020DA9DA
:070C5D00AC07120D957F7832
:020C6400AD07DA
:100C6600E4FBFAEDC4131313540124FF92A0ED25FF
:100C7600E0FD120DA4C2A1120DA90BBB08E5D2A07E
:100C8600120DA9D2A130A00F0AEAD394C840F6C229
:0E0C9600A1120DA97F0022C2A1120DA97F019B
:010CA400222D
:050D5D00120D62E4FF2D
:100D6200120C5DE4FF120C64AF04120C64020DC09D
:100D8500120C5D7F40120C64AF04120C64020DC09E
:100CDA007F20120D627F02120D62E4F9E924B0FF4F
:100CEA00120D5D7F10120D62E4F526E4FF120D85E8
:0D0CFA000526E526C3948040F209B908DF05
:010D070022C9
:100A59007FF4120DCA7FAE120D5D7F10120D627FF9
:100A690040120D627F81120D627FFF120D627FA11C
:100A7900120D627FC8120D627FA6120D627FA81245
:100A89000D627F3F120D627FD3120D5D7FD5120D6E
:100A9900627F80120D627FD9120D627FF1120D62A1
:100AA9007FDA120D627F12120D627FDB120D627FF7
:100AB90040120D627F20120D627F02120D627F8D3E
:100AC900120D627F14120D627FA4120D627FA612AD
:0F0AD9000D627FAF120D627F64120DCA020CDA3C
:100BC9008F268D27A9037F20120D5D7F22120D62CA
:100BD900E52725E0FF120D62E52725E004FF120D48
:100BE900627F21120D62E975F008A424088526F0B8
:100BF900A4FF120D62E975F008A4FF24088526F008
:0A0C0900A4FEEF24072EFF020D6287
:100003000804C312268AA2AAA4A32226EA02020093
:100013000000FF00003F2424243F0080FF00000075
:10002300000000007FC949494949497F0000000099
:100033000008044223128E42320E4282423E0000E6
:1000430000FC848484FC001010101010FF101000BA
:10005300003F1010103F0000010640807F000000A9
:1000630020102CE7242400F01010FF1010F00000E3
:100073000101017F211100070202FF0202070000B4
:10008300002018C744444444FC444444440400004E
:100093000404040704040404FF0404040404040023
:1000A300000000FE2222222222222222FE00000041
:1000B3008040300F02020202020242827F000000EF
:1000C300000000FE82828282828282FE00000000A3
:1000D300000000FF40404040404040FF000000005F
:1000E300000000BE2A2A2AEA2A2A2A3E000000002B
:1000F300004442494949497F49494949414000002F
:100103000004FF242424FF0400FE222222FE000018
:1001130088482F090919AF48300F0242827F000037
:10012300808080808080808080808080808080004C
:1001330000000000000000000000000000000000BC
:100143000000080808080808080808080800000054
:1001530010101010101010101010101010101000AC
:1001630000048484848484848484848484040000D8
:10017300202020202020202020202020202020009C
:1001830000FC040404FC040404FC040404FC000058
:10019300007F28242320202020212222227F0000E8
:1001A3000002424242C27E42424242C20202000076
:1001B30040404040784740404040407F40404000FE
:1001C30020202020202021222C202020202020003D
:1001D300004020100C03000000010204186000001E
:1001E300000000FE82828282828282FE0000000082
:1001F300000000FF40404040404040FF000000003E
:10020300000000F8000000000000003300000000C0
:1002130000100C02100C020000000000000000009F
:100223000040C07840C0780000043F04043F04004D
:1002330000708888FC08300000182020FF211E0071
:10024300F008F0806018000000310C031E211E002E
:1002530000F00888700000001E21232C19272110AC
:1002630000120E000000000000000000000000006B
:10027300000000E0180402000000000718204000FE
:1002830000020418E00000000040201807000000EE
:10029300404080F0804040000202010F0102020052
:1002A30000000000E0000000000101010F01010156
:1002B300000000000000000000907000000000003B
:1002C30000808080808080800000000000000000AB
:1002D30000000000000000000030300000000000BB
:1002E30000000000C0380400006018070000000090
:1002F30000E010080810E000000F102020100F008D
:1003030000001010F8000000000020203F20200013
:10031300007008080808F00000302824222130006B
:1003230000300808088870000018202121221C00D2
:100333000000804030F8000000060524243F2424F8
:1003430000F88888880808000019202020110E0072
:1003530000E0108888900000000F112020201F006B
:1003630000180808886818000000003E010000001B
:100373000070880808887000001C222121221C00BC
:1003830000F008080810E0000001122222110F00FB
:1003930000000000000000000000363600000000EE
:1003A300000000000000000000005B3B00000000B4
:1003B3000000804020100800000102040810200003
:1003C300004040404040400000020202020202009E
:1003D30000081020408000000020100804020100E3
:1003E30000704808088870000000003037000000E3
:1003F300C030C828E810E000071827282F28170066
:100403000000C038E0000000203C2302022738200F
:1004130008F8888888700000203F202020110E00F3
:10042300C0300808080838000718202020100800EA
:1004330008F808080810E000203F202020100F00D3
:1004430008F88888E8081000203F2020232018009F
:1004530008F88888E8081000203F20000300000007
:10046300C03008080838000007182020221E0200A8
:1004730008F808000008F808203F210101213F2067
:10048300000808F8080800000020203F2020000092
:1004930000000808F8080800C08080807F00000082
:1004A30008F888C028180800203F200126382000BB
:1004B30008F8080000000000203F20202020300022
:1004C30008F8F800F8F80800203F013E013F20003B
:1004D30008F830C00008F808203F200007183F0044
:1004E300E01008080810E0000F10202020100F0073
:1004F30008F808080808F000203F21010101000066
:10050300E01008080810E0000F10282830504F00B2
:1005130008F8888888887000203F2000030C30206A
:1005230000708808080838000038202121221C00A8
:10053300180808F8080818000000203F20000000F1
:1005430008F808000008F808001F202020201F00DA
:100553000878880000C83808000007380E0100003A
:1005630008F800F800F8080000033E013E0300000D
:10057300081868808068180820302C03032C30206A
:100583000838C800C83808000000203F20000000D9
:1005930010080808C8380800203826212020180031
:1005A300000000FE020202000000007F4040400005
:1005B30000000004081020C0000000000202027FB7
:1005C30000020202FE000000004040407F000000E5
:1005D300000004020204000000000000000000000C
:1005E3000000000000000000808080808080808008
:1005F30000020204000000000000000000000000F0
:10060300000080808000000000192424123F200095
:1006130010F0008080000000003F112020110E0028
:100623000000008080800000000E112020201100B7
:10063300000080808090F000001F202020103F20C9
:100643000000808080800000001F242424241700E1
:10065300008080E0909020000020203F20200000B8
:100663000000808080808000006B949494936000ED
:1006730010F0008080800000203F210000203F20F8
:1006830000809898000000000020203F20200000F8
:10069300000000809898000000C08080807F0000E8
:1006A30010F0000080808000203F240629302000C5
:1006B300001010F8000000000020203F2020000060
:1006C3008080808080808000203F20003F20003F8A
:1006D3008080008080800000203F210000203F2098
:1006E3000000808080800000001F202020201F0049
:1006F300808000808000000080FF912020110E0088
:100703000000008080008000000E11202091FF80F7
:10071300808080008080800020203F212000010015
:10072300000080808080800000332424242419006A
:10073300008080E0808000000000001F2020100067
:100743008080000000808000001F202020103F20B8
:10075300808080008080800000030C300C03000048
:100763008080008080008080010E300C07380601F5
:1007730000808080008080000020310E2E31200018
:1007830080808000008080800081867818060100C8
:1007930000808080808080000021302C2221300066
:1007A3000000000000FC020200000000013E404087
:1007B30000000000FF00000000000000FF00000038
:1007C3000202FC000000000040403E010000000067
:1007D3008080808080E0C080010101010107030166
:1007E30080C0E08080808080010307010101010156
:0E0DB20081838587898B8D80828486888A8CD8
:100D7200070800592321050420070F000000000086
:020D820000006F
:100CA500C2B500C2B600D2B500E4FEEF1392B4EFB0
:100CB500C313FFD2B600C2B6000EBE08EEE4FEEDC9
:100CC5001392B4EDC313FDD2B600C2B6000EBE0832
:040CD500EEC2B500B6
:010CD90022F8
:100C1300C2B500C2B600D2B500E4FDEF1392B4EF43
:100C2300C313FFD2B600C2B6000DBD08EE00E4FD4B
:100C3300A2B4E433FFC43333335480FCEEC3134C08
:100C4300FED2B600C2B6000DBD08E5C2B500D2B6ED
:090C530000C2B400D2B400AF06E7
:010C5C002275
:100D0800E4FD7F8E120CA5E4FCEC900DB993FF7402
:100D1800082CF8E6FD120CA50CBC07ED7D807F8E33
:030D2800020CA515
:100D4700E4FBEB900DB293FF120C1374082BF8A67B
:050D5700070BBB07EDD6
:010D5C002274
:100D2B00E4FF74082FF8E6C4540FFE75F00AA42EE6
:0B0D3B00FE740F2FF8A6060FBF07E79D
:010D4600228A
:100AF4000207F3E493A3F8E493A34003F68001F21E
:100B040008DFF48029E493A3F85407240CC8C33302
:100B1400C4540F4420C8834004F456800146F6DFD1
:100B2400E4800B0102040810204080900D72E47EE2
:100B3400019360BCA3FF543F30E509541FFEE493C6
:100B4400A360010ECF54C025E060A840B8E493A38D
:100B5400FAE493A3F8E493A3C8C582C8CAC583CAB8
:100B6400F0A3C8C582C8CAC583CADFE9DEE780BE70
:010D8400006E
:00000001FF
